{
    "_format": "hh-sol-artifact-1",
    "contractName": "Identeefi",
    "sourceName": "contracts/Identeefi.sol",
    "abi": [
        {
            "inputs": [],
            "stateMutability": "nonpayable",
            "type": "constructor"
        },
        {
            "anonymous": false,
            "inputs": [
                {
                    "indexed": false,
                    "internalType": "string",
                    "name": "serialNumber",
                    "type": "string"
                },
                {
                    "indexed": false,
                    "internalType": "string",
                    "name": "actor",
                    "type": "string"
                },
                {
                    "indexed": false,
                    "internalType": "string",
                    "name": "location",
                    "type": "string"
                },
                {
                    "indexed": false,
                    "internalType": "string",
                    "name": "timestamp",
                    "type": "string"
                },
                {
                    "indexed": false,
                    "internalType": "bool",
                    "name": "isSold",
                    "type": "bool"
                }
            ],
            "name": "ProductHistoryUpdated",
            "type": "event"
        },
        {
            "anonymous": false,
            "inputs": [
                {
                    "indexed": false,
                    "internalType": "string",
                    "name": "serialNumber",
                    "type": "string"
                },
                {
                    "indexed": false,
                    "internalType": "string",
                    "name": "name",
                    "type": "string"
                },
                {
                    "indexed": false,
                    "internalType": "string",
                    "name": "brand",
                    "type": "string"
                }
            ],
            "name": "ProductRegistered",
            "type": "event"
        },
        {
            "inputs": [
                {
                    "internalType": "string",
                    "name": "_serialNumber",
                    "type": "string"
                },
                {
                    "internalType": "string",
                    "name": "_actor",
                    "type": "string"
                },
                {
                    "internalType": "string",
                    "name": "_location",
                    "type": "string"
                },
                {
                    "internalType": "string",
                    "name": "_timestamp",
                    "type": "string"
                },
                {
                    "internalType": "bool",
                    "name": "_isSold",
                    "type": "bool"
                }
            ],
            "name": "addProductHistory",
            "outputs": [],
            "stateMutability": "nonpayable",
            "type": "function"
        },
        {
            "inputs": [
                {
                    "internalType": "string",
                    "name": "_serialNumber",
                    "type": "string"
                }
            ],
            "name": "getProductDetails",
            "outputs": [
                {
                    "internalType": "string",
                    "name": "name",
                    "type": "string"
                },
                {
                    "internalType": "string",
                    "name": "serialNumber",
                    "type": "string"
                },
                {
                    "internalType": "string",
                    "name": "brand",
                    "type": "string"
                },
                {
                    "internalType": "string",
                    "name": "description",
                    "type": "string"
                },
                {
                    "internalType": "string",
                    "name": "image",
                    "type": "string"
                },
                {
                    "internalType": "uint256",
                    "name": "historySize",
                    "type": "uint256"
                }
            ],
            "stateMutability": "view",
            "type": "function"
        },
        {
            "inputs": [
                {
                    "internalType": "string",
                    "name": "_serialNumber",
                    "type": "string"
                }
            ],
            "name": "getProductHistory",
            "outputs": [
                {
                    "components": [
                        {
                            "internalType": "uint256",
                            "name": "id",
                            "type": "uint256"
                        },
                        {
                            "internalType": "string",
                            "name": "actor",
                            "type": "string"
                        },
                        {
                            "internalType": "string",
                            "name": "location",
                            "type": "string"
                        },
                        {
                            "internalType": "string",
                            "name": "timestamp",
                            "type": "string"
                        },
                        {
                            "internalType": "bool",
                            "name": "isSold",
                            "type": "bool"
                        }
                    ],
                    "internalType": "struct Identeefi.ProductHistory[]",
                    "name": "",
                    "type": "tuple[]"
                }
            ],
            "stateMutability": "view",
            "type": "function"
        },
        {
            "inputs": [],
            "name": "owner",
            "outputs": [
                {
                    "internalType": "address",
                    "name": "",
                    "type": "address"
                }
            ],
            "stateMutability": "view",
            "type": "function"
        },
        {
            "inputs": [
                {
                    "internalType": "string",
                    "name": "_name",
                    "type": "string"
                },
                {
                    "internalType": "string",
                    "name": "_brand",
                    "type": "string"
                },
                {
                    "internalType": "string",
                    "name": "_serialNumber",
                    "type": "string"
                },
                {
                    "internalType": "string",
                    "name": "_description",
                    "type": "string"
                },
                {
                    "internalType": "string",
                    "name": "_image",
                    "type": "string"
                },
                {
                    "internalType": "string",
                    "name": "_actor",
                    "type": "string"
                },
                {
                    "internalType": "string",
                    "name": "_location",
                    "type": "string"
                },
                {
                    "internalType": "string",
                    "name": "_timestamp",
                    "type": "string"
                }
            ],
            "name": "registerProduct",
            "outputs": [],
            "stateMutability": "nonpayable",
            "type": "function"
        }
    ],
    "bytecode": "0x608060405234801561001057600080fd5b50336000806101000a81548173ffffffffffffffffffffffffffffffffffffffff021916908373ffffffffffffffffffffffffffffffffffffffff160217905550611b85806100606000396000f3fe608060405234801561001057600080fd5b50600436106100575760003560e01c8063198c59b01461005c5780633e2357e3146100915780638da5cb5b146100ad578063b4b33ef5146100cb578063d4f50453146100e7575b600080fd5b61007660048036038101906100719190610eb5565b610117565b60405161008896959493929190610f96565b60405180910390f35b6100ab60048036038101906100a6919061101a565b6104d5565b005b6100b561065f565b6040516100c291906111f1565b60405180910390f35b6100e560048036038101906100e09190611244565b610683565b005b61010160048036038101906100fc9190610eb5565b6109a7565b60405161010e91906114dd565b60405180910390f35b6060806060806060600080600188604051610132919061153b565b9081526020016040518091039020600101805461014e90611581565b905003610190576040517f08c379a0000000000000000000000000000000000000000000000000000000008152600401610187906115fe565b60405180910390fd5b60006001886040516101a2919061153b565b90815260200160405180910390206040518060c00160405290816000820180546101cb90611581565b80601f01602080910402602001604051908101604052809291908181526020018280546101f790611581565b80156102445780601f1061021957610100808354040283529160200191610244565b820191906000526020600020905b81548152906001019060200180831161022757829003601f168201915b5050505050815260200160018201805461025d90611581565b80601f016020809104026020016040519081016040528092919081815260200182805461028990611581565b80156102d65780601f106102ab576101008083540402835291602001916102d6565b820191906000526020600020905b8154815290600101906020018083116102b957829003601f168201915b505050505081526020016002820180546102ef90611581565b80601f016020809104026020016040519081016040528092919081815260200182805461031b90611581565b80156103685780601f1061033d57610100808354040283529160200191610368565b820191906000526020600020905b81548152906001019060200180831161034b57829003601f168201915b5050505050815260200160038201805461038190611581565b80601f01602080910402602001604051908101604052809291908181526020018280546103ad90611581565b80156103fa5780601f106103cf576101008083540402835291602001916103fa565b820191906000526020600020905b8154815290600101906020018083116103dd57829003601f168201915b5050505050815260200160048201805461041390611581565b80601f016020809104026020016040519081016040528092919081815260200182805461043f90611581565b801561048c5780601f106104615761010080835404028352916020019161048c565b820191906000526020600020905b81548152906001019060200180831161046f57829003601f168201915b505050505081526020016005820154815250509050806000015181602001518260600151836040015184608001518560a001519650965096509650965096505091939550919395565b60006001876040516104e7919061153b565b9081526020016040518091039020600101805461050390611581565b905014610545576040517f08c379a000000000000000000000000000000000000000000000000000000000815260040161053c9061166a565b60405180910390fd5b6040518060c001604052808981526020018781526020018681526020018881526020018581526020016000815250600187604051610583919061153b565b908152602001604051809103902060008201518160000190816105a69190611836565b5060208201518160010190816105bc9190611836565b5060408201518160020190816105d29190611836565b5060608201518160030190816105e89190611836565b5060808201518160040190816105fe9190611836565b5060a0820151816005015590505061061a868484846000610683565b7f5a304478b5ad812924e60fb3ee7fadbb2269effa0df0ede39b00fc1c606ee0c086898960405161064d93929190611908565b60405180910390a15050505050505050565b60008054906101000a900473ffffffffffffffffffffffffffffffffffffffff1681565b6000600186604051610695919061153b565b908152602001604051809103902060010180546106b190611581565b9050036106f3576040517f08c379a00000000000000000000000000000000000000000000000000000000081526004016106ea906119a0565b60405180910390fd5b600060018087604051610706919061153b565b90815260200160405180910390206005015461072291906119ef565b9050600286604051610734919061153b565b90815260200160405180910390206040518060a0016040528083815260200187815260200186815260200185815260200184151581525090806001815401808255809150506001900390600052602060002090600502016000909190919091506000820151816000015560208201518160010190816107b39190611836565b5060408201518160020190816107c99190611836565b5060608201518160030190816107df9190611836565b5060808201518160040160006101000a81548160ff0219169083151502179055505050600186604051610812919061153b565b9081526020016040518091039020600501600081548092919061083490611a23565b91905055507fcefff8820d82c44b44bf9aa0df08a1ff6281abe4a66947967f3ff8803c6ba4418686868686604051610870959493929190611a7a565b60405180910390a16108b76040518060400160405280602081526020017fe29c852050726f6475637420486973746f72792061646465642062793a20257381525086610c6f565b61099f6040518060400160405280601081526020017ff09f9b922050726f647563743a20257300000000000000000000000000000000815250600188604051610900919061153b565b9081526020016040518091039020600001805461091c90611581565b80601f016020809104026020016040519081016040528092919081815260200182805461094890611581565b80156109955780601f1061096a57610100808354040283529160200191610995565b820191906000526020600020905b81548152906001019060200180831161097857829003601f168201915b5050505050610c6f565b505050505050565b606060006001836040516109bb919061153b565b908152602001604051809103902060010180546109d790611581565b905003610a19576040517f08c379a0000000000000000000000000000000000000000000000000000000008152600401610a10906115fe565b60405180910390fd5b600282604051610a29919061153b565b9081526020016040518091039020805480602002602001604051908101604052809291908181526020016000905b82821015610c6457838290600052602060002090600502016040518060a001604052908160008201548152602001600182018054610a9490611581565b80601f0160208091040260200160405190810160405280929190818152602001828054610ac090611581565b8015610b0d5780601f10610ae257610100808354040283529160200191610b0d565b820191906000526020600020905b815481529060010190602001808311610af057829003601f168201915b50505050508152602001600282018054610b2690611581565b80601f0160208091040260200160405190810160405280929190818152602001828054610b5290611581565b8015610b9f5780601f10610b7457610100808354040283529160200191610b9f565b820191906000526020600020905b815481529060010190602001808311610b8257829003601f168201915b50505050508152602001600382018054610bb890611581565b80601f0160208091040260200160405190810160405280929190818152602001828054610be490611581565b8015610c315780601f10610c0657610100808354040283529160200191610c31565b820191906000526020600020905b815481529060010190602001808311610c1457829003601f168201915b505050505081526020016004820160009054906101000a900460ff16151515158152505081526020019060010190610a57565b505050509050919050565b610d078282604051602401610c85929190611ae9565b6040516020818303038152906040527f4b5c4277000000000000000000000000000000000000000000000000000000007bffffffffffffffffffffffffffffffffffffffffffffffffffffffff19166020820180517bffffffffffffffffffffffffffffffffffffffffffffffffffffffff8381831617835250505050610d0b565b5050565b610d2281610d1a610d25610d46565b63ffffffff16565b50565b60006a636f6e736f6c652e6c6f679050600080835160208501845afa505050565b610d51819050919050565b610d59611b20565b565b6000604051905090565b600080fd5b600080fd5b600080fd5b600080fd5b6000601f19601f8301169050919050565b7f4e487b7100000000000000000000000000000000000000000000000000000000600052604160045260246000fd5b610dc282610d79565b810181811067ffffffffffffffff82111715610de157610de0610d8a565b5b80604052505050565b6000610df4610d5b565b9050610e008282610db9565b919050565b600067ffffffffffffffff821115610e2057610e1f610d8a565b5b610e2982610d79565b9050602081019050919050565b82818337600083830152505050565b6000610e58610e5384610e05565b610dea565b905082815260208101848484011115610e7457610e73610d74565b5b610e7f848285610e36565b509392505050565b600082601f830112610e9c57610e9b610d6f565b5b8135610eac848260208601610e45565b91505092915050565b600060208284031215610ecb57610eca610d65565b5b600082013567ffffffffffffffff811115610ee957610ee8610d6a565b5b610ef584828501610e87565b91505092915050565b600081519050919050565b600082825260208201905092915050565b60005b83811015610f38578082015181840152602081019050610f1d565b60008484015250505050565b6000610f4f82610efe565b610f598185610f09565b9350610f69818560208601610f1a565b610f7281610d79565b840191505092915050565b6000819050919050565b610f9081610f7d565b82525050565b600060c0820190508181036000830152610fb08189610f44565b90508181036020830152610fc48188610f44565b90508181036040830152610fd88187610f44565b90508181036060830152610fec8186610f44565b905081810360808301526110008185610f44565b905061100f60a0830184610f87565b979650505050505050565b600080600080600080600080610100898b03121561103b5761103a610d65565b5b600089013567ffffffffffffffff81111561105957611058610d6a565b5b6110658b828c01610e87565b985050602089013567ffffffffffffffff81111561108657611085610d6a565b5b6110928b828c01610e87565b975050604089013567ffffffffffffffff8111156110b3576110b2610d6a565b5b6110bf8b828c01610e87565b965050606089013567ffffffffffffffff8111156110e0576110df610d6a565b5b6110ec8b828c01610e87565b955050608089013567ffffffffffffffff81111561110d5761110c610d6a565b5b6111198b828c01610e87565b94505060a089013567ffffffffffffffff81111561113a57611139610d6a565b5b6111468b828c01610e87565b93505060c089013567ffffffffffffffff81111561116757611166610d6a565b5b6111738b828c01610e87565b92505060e089013567ffffffffffffffff81111561119457611193610d6a565b5b6111a08b828c01610e87565b9150509295985092959890939650565b600073ffffffffffffffffffffffffffffffffffffffff82169050919050565b60006111db826111b0565b9050919050565b6111eb816111d0565b82525050565b600060208201905061120660008301846111e2565b92915050565b60008115159050919050565b6112218161120c565b811461122c57600080fd5b50565b60008135905061123e81611218565b92915050565b600080600080600060a086880312156112605761125f610d65565b5b600086013567ffffffffffffffff81111561127e5761127d610d6a565b5b61128a88828901610e87565b955050602086013567ffffffffffffffff8111156112ab576112aa610d6a565b5b6112b788828901610e87565b945050604086013567ffffffffffffffff8111156112d8576112d7610d6a565b5b6112e488828901610e87565b935050606086013567ffffffffffffffff81111561130557611304610d6a565b5b61131188828901610e87565b92505060806113228882890161122f565b9150509295509295909350565b600081519050919050565b600082825260208201905092915050565b6000819050602082019050919050565b61136481610f7d565b82525050565b600082825260208201905092915050565b600061138682610efe565b611390818561136a565b93506113a0818560208601610f1a565b6113a981610d79565b840191505092915050565b6113bd8161120c565b82525050565b600060a0830160008301516113db600086018261135b565b50602083015184820360208601526113f3828261137b565b9150506040830151848203604086015261140d828261137b565b91505060608301518482036060860152611427828261137b565b915050608083015161143c60808601826113b4565b508091505092915050565b600061145383836113c3565b905092915050565b6000602082019050919050565b60006114738261132f565b61147d818561133a565b93508360208202850161148f8561134b565b8060005b858110156114cb57848403895281516114ac8582611447565b94506114b78361145b565b925060208a01995050600181019050611493565b50829750879550505050505092915050565b600060208201905081810360008301526114f78184611468565b905092915050565b600081905092915050565b600061151582610efe565b61151f81856114ff565b935061152f818560208601610f1a565b80840191505092915050565b6000611547828461150a565b915081905092915050565b7f4e487b7100000000000000000000000000000000000000000000000000000000600052602260045260246000fd5b6000600282049050600182168061159957607f821691505b6020821081036115ac576115ab611552565b5b50919050565b7fe29d8c2050726f6475637420646f6573206e6f74206578697374210000000000600082015250565b60006115e8601b83610f09565b91506115f3826115b2565b602082019050919050565b60006020820190508181036000830152611617816115db565b9050919050565b7f50726f6475637420616c72656164792072656769737465726564210000000000600082015250565b6000611654601b83610f09565b915061165f8261161e565b602082019050919050565b6000602082019050818103600083015261168381611647565b9050919050565b60008190508160005260206000209050919050565b60006020601f8301049050919050565b600082821b905092915050565b6000600883026116ec7fffffffffffffffffffffffffffffffffffffffffffffffffffffffffffffffff826116af565b6116f686836116af565b95508019841693508086168417925050509392505050565b6000819050919050565b600061173361172e61172984610f7d565b61170e565b610f7d565b9050919050565b6000819050919050565b61174d83611718565b6117616117598261173a565b8484546116bc565b825550505050565b600090565b611776611769565b611781818484611744565b505050565b5b818110156117a55761179a60008261176e565b600181019050611787565b5050565b601f8211156117ea576117bb8161168a565b6117c48461169f565b810160208510156117d3578190505b6117e76117df8561169f565b830182611786565b50505b505050565b600082821c905092915050565b600061180d600019846008026117ef565b1980831691505092915050565b600061182683836117fc565b9150826002028217905092915050565b61183f82610efe565b67ffffffffffffffff81111561185857611857610d8a565b5b6118628254611581565b61186d8282856117a9565b600060209050601f8311600181146118a0576000841561188e578287015190505b611898858261181a565b865550611900565b601f1984166118ae8661168a565b60005b828110156118d6578489015182556001820191506020850194506020810190506118b1565b868310156118f357848901516118ef601f8916826117fc565b8355505b6001600288020188555050505b505050505050565b600060608201905081810360008301526119228186610f44565b905081810360208301526119368185610f44565b9050818103604083015261194a8184610f44565b9050949350505050565b7f50726f6475637420646f6573206e6f7420657869737421000000000000000000600082015250565b600061198a601783610f09565b915061199582611954565b602082019050919050565b600060208201905081810360008301526119b98161197d565b9050919050565b7f4e487b7100000000000000000000000000000000000000000000000000000000600052601160045260246000fd5b60006119fa82610f7d565b9150611a0583610f7d565b9250828201905080821115611a1d57611a1c6119c0565b5b92915050565b6000611a2e82610f7d565b91507fffffffffffffffffffffffffffffffffffffffffffffffffffffffffffffffff8203611a6057611a5f6119c0565b5b600182019050919050565b611a748161120c565b82525050565b600060a0820190508181036000830152611a948188610f44565b90508181036020830152611aa88187610f44565b90508181036040830152611abc8186610f44565b90508181036060830152611ad08185610f44565b9050611adf6080830184611a6b565b9695505050505050565b60006040820190508181036000830152611b038185610f44565b90508181036020830152611b178184610f44565b90509392505050565b7f4e487b7100000000000000000000000000000000000000000000000000000000600052605160045260246000fdfea2646970667358221220345b4d7538d4b433482f4225653dab74791e83698da6b8e6b172387fc6a2e5b764736f6c63430008110033",
    "linkReferences": {},
    "deployedLinkReferences": {}
}